:020000040800F2
:1000000000800120F1250008590700085B0700085F
:100010005D0700085F070008610700080000000096
:100020000000000000000000000000008123000824
:100030006307000800000000212400088524000850
:1000400041260008412600084126000841260008F4
:1000500041260008412600084126000841260008E4
:1000600041260008412600084126000841260008D4
:1000700041260008412600084126000841260008C4
:100080004126000841260008412600080000000023
:1000900000000000000000000000000041260008F1
:1000A000650700084126000841260008412600088F
:1000B0004126000841260008412600084126000884
:1000C0004126000841260008412600084126000874
:1000D00041260008412600084126000800000000D3
:1000E00041260008412600084126000800000000C3
:1000F0000000000000000000000000004126000891
:1001000000000000412600084126000841260008A2
:1001100000000000000000000000000000000000DF
:100120004126000841260008412600084126000813
:100130004126000800000000000000000000000050
:100140000000000000000000000000004126000840
:1001500041260008412600084126000841260008E3
:1001600041260008412600080000000000000000B1
:10017000000000000000000000000000000000007F
:100180000000000041260008000000000000000000
:0401900041260008FC
:1001A00010B5054C237833B9044B13B10448AFF3B1
:1001B00000800123237010BD7800002000000000A3
:1001C0002428000808B5034B1BB103490348AFF3CB
:1001D000008008BD000000007C00002024280008EA
:1001E00053B94AB9002908BF00281CBF4FF0FF319E
:1001F0004FF0FF3000F074B9ADF1080C6DE904CE9A
:1002000000F006F8DDF804E0DDE9022304B07047F1
:100210002DE9F047089D04468E46002B4DD18A42B9
:10022000944669D9B2FA82F252B101FA02F3C2F1EC
:10023000200120FA01F10CFA02FC41EA030E94407D
:100240004FEA1C48210CBEFBF8F61FFA8CF708FB9E
:1002500016E341EA034306FB07F199420AD91CEB76
:10026000030306F1FF3080F01F81994240F21C81A8
:10027000023E63445B1AA4B2B3FBF8F008FB1033F0
:1002800044EA034400FB07F7A7420AD91CEB040425
:1002900000F1FF3380F00A81A74240F207816444F5
:1002A000023840EA0640E41B00261DB1D44000237A
:1002B000C5E900433146BDE8F0878B4209D9002DDE
:1002C00000F0EF800026C5E9000130463146BDE868
:1002D000F087B3FA83F6002E4AD18B4202D38242D2
:1002E00000F2F980841A61EB030301209E46002D81
:1002F000E0D0C5E9004EDDE702B9FFDEB2FA82F2D6
:10030000002A40F09280A1EB0C014FEA1C471FFA33
:100310008CFE0126200CB1FBF7F307FB131140EA1A
:1003200001410EFB03F0884208D91CEB010103F1E7
:10033000FF3802D2884200F2CB804346091AA4B2A9
:10034000B1FBF7F007FB101144EA01440EFB00FE7D
:10035000A64508D91CEB040400F1FF3102D2A645E2
:1003600000F2BB800846A4EB0E0440EA03409CE781
:10037000C6F12007B34022FA07FC4CEA030C20FA2E
:1003800007F401FA06F31C43F9404FEA1C4900FA4E
:1003900006F3B1FBF9F8200C1FFA8CFE09FB1811CB
:1003A00040EA014108FB0EF0884202FA06F20BD93E
:1003B0001CEB010108F1FF3A80F08880884240F28E
:1003C0008580A8F102086144091AA4B2B1FBF9F0D2
:1003D00009FB101144EA014100FB0EFE8E4508D9CD
:1003E0001CEB010100F1FF346CD28E456AD9023852
:1003F000614440EA0840A0FB0294A1EB0E01A14237
:10040000C846A64656D353D05DB1B3EB080261EBA4
:100410000E0101FA07F722FA06F3F1401F43C5E97E
:10042000007100263146BDE8F087C2F12003D840B4
:100430000CFA02FC21FA03F3914001434FEA1C47F6
:100440001FFA8CFEB3FBF7F007FB10360B0C43EAE8
:10045000064300FB0EF69E4204FA02F408D91CEB98
:10046000030300F1FF382FD29E422DD90238634496
:100470009B1B89B2B3FBF7F607FB163341EA034136
:1004800006FB0EF38B4208D91CEB010106F1FF3885
:1004900016D28B4214D9023E6144C91A46EA00467C
:1004A00038E72E46284605E70646E3E61846F8E60E
:1004B0004B45A9D2B9EB020864EB0C0E0138A3E757
:1004C0004646EAE7204694E74046D1E7D0467BE738
:1004D000023B614432E7304609E76444023842E7B0
:1004E000704700BF08B50268034B9A4200D008BDB0
:1004F00000F05AFEFBE700BF0040014072B6FEE785
:1005000000B595B03022002108A802F0BFF8002302
:100510000393049305930693079301931F4A116C69
:1005200041F080511164126C02F080520192019AE4
:1005300002931B490A6822F4404242F400420A60D6
:100540000A6802F440420292029A022108910122B2
:100550000B9210220C920E910F9310924FF4A873ED
:100560001193042312930723139308A800F070F942
:1005700080B90F23039302210491002305934FF4C4
:1005800080520692079303A800F0C8FB20B915B06B
:100590005DF804FBFFF7B2FFFFF7B0FF0038024041
:1005A0000070004008B500F0E5FDFFF7A9FF00F07E
:1005B000BDF801F061FDFEE784B00368B3F1804F40
:1005C00015D01F4A934220D01E4A93422AD01E4A79
:1005D000934218D1002303931C4B1A6C42F008027B
:1005E0001A641B6C03F008030393039B0BE00023C6
:1005F0000093164B1A6C42F001021A641B6C03F054
:1006000001030093009B04B07047002301930F4B3C
:100610001A6C42F002021A641B6C03F0020301938D
:10062000019BF0E700230293084B1A6C42F004028E
:100630001A641B6C03F004030293029BE3E700BF00
:100640000004004000080040000C00400038024058
:1006500008B50A480A4B03604FF4E13343600023B6
:100660008360C36003610C2242618361C36101F056
:100670001CF800B908BDFFF741FFFBE7940000201C
:100680000044004000B589B0002303930493059310
:10069000069307930268144B9A4202D009B05DF8A2
:1006A00004FB0021019103F5FA331A6C42F4003285
:1006B0001A641A6C02F400320192019A02911A6BC8
:1006C00042F001021A631B6B03F001030293029BC9
:1006D0000C230393022304930723079303A90348DE
:1006E00000F010FCDAE700BF0044004000000240C8
:1006F00008B5FFF7ADFF642306220449044801F062
:1007000004F8012001F0BDFCF5E700BF3C2800081B
:1007100094000020034B0360034B0B6080231360A5
:10072000704700BFE0020020E000002000B583B069
:10073000064B0193012300930023802204490548BE
:1007400001F09BFA03B05DF804FB00BFDC00002061
:1007500044280008F1060008FEE7FEE7FEE7FEE792
:10076000FEE7704708B5024800F070FD08BD00BF05
:100770006007002000B583B0002200920D4B596C39
:1007800041F480415964596C01F480410091009911
:100790000192196C41F0805119641B6C03F0805375
:1007A0000193019B0F216FF0010000F09DFC03B04D
:1007B0005DF804FB0038024030B589B005460024DE
:1007C00001941E4B5A6C42F480325A645B6C03F401
:1007D00080330193019B02A903A800F075FB00F090
:1007E00063FB03461648A0FB03239B0C013B154803
:1007F000154A026040F2E732C260436004618460DF
:10080000846100F029FE044610B1204609B030BDD5
:100810000C4800F0DBFC04460028F6D1182000F05C
:100820009BFC0F2D01D90124EFE700222946182057
:1008300000F05AFC054B1D60E7E700BF003802409E
:1008400083DE1B43600700200040014004000020BD
:10085000002800F0E08170B582B00446036813F010
:10086000010F3BD09F4B9B6803F00C03042B2CD053
:100870009C4B9B6803F00C03082B21D06368B3F5F5
:10088000803F4FD0B3F5A02F52D0964B1A6822F478
:1008900080321A601A6822F480221A606368002B82
:1008A00050D000F08DFC05468E4B1B6813F4003FC2
:1008B00014D100F085FC401B6428F5D90320B1E178
:1008C000884B5B6813F4800FD8D0864B1B6813F4F9
:1008D000003F03D06368002B00F09F81236813F072
:1008E000020F54D07F4B9B6813F00C0F3ED07D4B12
:1008F0009B6803F00C03082B33D0E368002B68D00F
:10090000794B01221A6000F05BFC0546754B1B68B1
:1009100013F0020F54D100F053FC401B0228F5D90C
:1009200003207FE16F4A136843F480331360B5E717
:100930006C4B1A6842F480221A601A6842F48032C2
:100940001A60ABE700F03CFC0546664B1B6813F4ED
:10095000003FC3D000F034FC401B6428F5D90320CD
:1009600060E1604B5B6813F4800FC6D15D4B1B6880
:1009700013F0020F03D0E368012B40F05081594A75
:10098000136823F0F803216943EAC1031360236865
:1009900013F0080F42D063696BB3534B0122C3F8C5
:1009A000802E00F00DFC05464E4B5B6F13F0020FDE
:1009B00034D100F005FC401B0228F5D9032031E1B9
:1009C000484A136823F0F803216943EAC10313601E
:1009D000DDE7454B00221A6000F0F2FB0546414B73
:1009E0001B6813F0020FD2D000F0EAFB401B022874
:1009F000F5D9032016E13C4B0022C3F8802E00F00D
:100A0000DFFB0546374B5B6F13F0020F06D000F09B
:100A1000D7FB401B0228F5D9032003E1236813F01C
:100A2000040F77D02F4B1B6C13F0805F33D1002362
:100A300001932C4B1A6C42F080521A641B6C03F029
:100A400080530193019B0125284B1B6813F4807F81
:100A500023D0A368012B34D0052B38D0214B1A6F3B
:100A600022F001021A671A6F22F004021A67A368C3
:100A7000002B3DD000F0A4FB06461A4B1B6F13F071
:100A8000020F46D100F09CFB801B41F28833984254
:100A9000F3D90320C6E00025D6E7144A136843F4CF
:100AA0008073136000F08CFB0646104B1B6813F438
:100AB000807FCED100F084FB801B0228F5D9032073
:100AC000B0E0084A136F43F001031367CFE7054B0B
:100AD0001A6F42F004021A671A6F42F001021A6795
:100AE000C5E700BF003802400000474200700040E8
:100AF00000F066FB0646524B1B6F13F0020F08D046
:100B000000F05EFB801B41F288339842F3D903204A
:100B100088E0EDB9A369002B00F08380484A926811
:100B200002F00C02082A51D0022B17D0454B0022AC
:100B30001A6600F045FB0446414B1B6813F0007F2A
:100B400042D000F03DFB001B0228F5D9032069E0EC
:100B50003B4A136C23F080531364DBE7394B0022CC
:100B60001A6600F02DFB0546354B1B6813F0007F1D
:100B700006D000F025FB401B0228F5D9032051E0E8
:100B8000E369226A1343626A43EA8213A26A520843
:100B9000013A43EA0243E26A43EA0263284A5360A5
:100BA000284B01221A6600F00BFB0446244B1B68FD
:100BB00013F0007F06D100F003FB001B0228F5D9DB
:100BC00003202FE000202DE000202BE0012B2BD074
:100BD0001B4B5B6803F48001E269914226D103F06C
:100BE0003F02216A8A4223D1616A47F6C0721A40E5
:100BF000B2EB811F1ED103F44031A26A5208013AC0
:100C0000B1EB024F18D103F07063E26AB3EB026FED
:100C100014D1002006E001207047012002E00120ED
:100C200000E0002002B070BD0120FBE70120F9E7E1
:100C30000120F7E70120F5E70120F3E70120F1E7C4
:100C4000003802400000474208B5314B9B6803F072
:100C50000C03042B57D0082B57D12D4B5A6802F0A8
:100C60003F025B6813F4800F2AD0294B5968C1F307
:100C7000881C4FEA4C11B1EB0C006EEB0E0E4FEAE4
:100C80008E1343EA90638101091A63EB0E03DB00C4
:100C900043EA5173C90011EB0C0C43F100035902F4
:100CA00000234FEA4C2041EADC51FFF799FA184B38
:100CB0005B68C3F3014301335B00B0FBF3F025E055
:100CC000134B5968C1F3881C4FEA4C11B1EB0C006F
:100CD0006EEB0E0E4FEA8E1343EA90638101091A00
:100CE00063EB0E03DB0043EA5173C90011EB0C0CFC
:100CF00043F10003990200234FEA8C2041EA9C5102
:100D0000FFF76EFAD3E7034800E0034808BD00BFD1
:100D10000038024000127A000024F400002800F09D
:100D20009B8070B50D4604464F4B1B6803F00703CC
:100D30008B4208D2CBB24C4A1370136803F00703FE
:100D40008B4240F08B80236813F0020F17D013F012
:100D5000040F04D0454A936843F4E053936023683A
:100D600013F0080F04D0414A936843F46043936042
:100D70003E4A936823F0F003A1680B439360236815
:100D800013F0010F32D06368012B21D09A1E012A83
:100D900025D9364A126812F0020F61D033498A68A9
:100DA00022F0030213438B6000F00AFA06462F4B31
:100DB0009B6803F00C036268B3EB820F16D000F05F
:100DC000FFF9801B41F288339842F0D9032042E0BA
:100DD000264A126812F4003FE0D101203BE0234A8A
:100DE000126812F0007FD9D1012034E01E4B1B683D
:100DF00003F00703AB4207D9EAB21B4B1A701B681A
:100E000003F00703AB422DD1236813F0040F06D083
:100E1000164A936823F4E053E1680B439360236818
:100E200013F0080F07D0114A936823F46043216937
:100E300043EAC1039360FFF707FF0C4B9B68C3F3C2
:100E400003130B4AD35CD8400A4B18600A4B18684E
:100E5000FFF7B2FC002070BD012070470120FAE7C7
:100E60000120F8E70120F6E7003C0240003802408C
:100E7000502800080800002004000020014B1868DA
:100E8000704700BF0800002008B5FFF7F7FF044BCC
:100E90009B68C3F38223034AD35CD84008BD00BFDC
:100EA000003802406028000808B5FFF7E7FF044B50
:100EB0009B68C3F34233034AD35CD84008BD00BFEC
:100EC00000380240602800080F2303600B4B9A682B
:100ED00002F0030242609A6802F0F00282609A68AF
:100EE00002F4E052C2609B68DB0803F4E053036144
:100EF000034B1B6803F007030B6070470038024088
:100F0000003C024000230F2B00F2D28070B582B06B
:100F100060E085685E000324B44025EA0405CC68DF
:100F2000B4402C438460456825EA02054C68C4F34C
:100F300000129A402A4342605AE0DC08083450F814
:100F4000246003F0070295000F22AA4026EA020E51
:100F50000A69AA4042EA0E0240F824205CE004221A
:100F600000E0002202FA0EF22A430234514D45F805
:100F70002420514A94686FEA0C0224EA0C054E685A
:100F800016F4801F01D04CEA04054B4CA560E468C0
:100F900002EA04054E6816F4001F01D04CEA04056D
:100FA000454CE560646802EA04054E6816F4003FAB
:100FB00001D04CEA0405404C6560246822404D682D
:100FC00015F4803F01D04CEA04023B4C226001330F
:100FD0000F2B6BD801229A400C6804EA020C32EA0B
:100FE0000404F4D14C6804F00304013C012C90D9B2
:100FF0004A6802F00302032A09D0C4685D00032294
:10100000AA4024EA02048A68AA402243C2604A68CD
:1010100002F00302022A90D004684FEA430E032232
:1010200002FA0EF224EA02044A6802F0030202FA0B
:101030000EF2224302604A6812F4403FC7D00022F9
:1010400001921E4A546C44F480445464526C02F47D
:1010500080420192019A9C08A51C164A52F825501C
:1010600003F003024FEA820E0F2202FA0EF225EA83
:101070000205134A90423FF474AF02F58062904239
:101080000ED002F5806290420CD002F58062904250
:101090000AD002F5806290423FF461AF072261E717
:1010A00001225FE702225DE703225BE702B070BD29
:1010B000704700BF00380140003C0140003802404A
:1010C00000000240074AD36823F4E0631B041B0CB2
:1010D000000200F4E060034343F0BF6343F40033D5
:1010E000D360704700ED00E000B5194BDB68C3F337
:1010F0000223C3F1070CBCF1040F28BF4FF0040C0E
:1011000003F1040EBEF1060F18D9033B4FF0FF3E6A
:101110000EFA0CFC21EA0C0199400EFA03F322EAC4
:101120000303194300280BDB0901C9B200F1604039
:1011300000F5614080F800135DF804FB0023E5E74B
:1011400000F00F000901C9B2024B1954F4E700BFC7
:1011500000ED00E014ED00E0002807DB00F01F02C6
:10116000400901239340024A42F82030704700BFF3
:1011700000E100E008B50B4B1A6842F400721A60F7
:101180001A6842F480621A601A6842F480721A6027
:101190000320FFF797FF0F20FFF70EFBFFF7EAFA98
:1011A000002008BD003C0240034A1168034B1B7835
:1011B0000B441360704700BFA80700200000002008
:1011C000014B1868704700BFA807002090F83D3019
:1011D000DBB2012B2FD1022380F83D300268D368A7
:1011E00043F00103D3600368154A934218D0B3F16A
:1011F000804F15D0A2F57C42934211D002F5806257
:1012000093420DD002F58062934209D002F59A32E2
:10121000934205D01A6842F001021A60002070471C
:101220009A6802F00702062A07D01A6842F0010203
:101230001A6000207047012070470020704700BFEF
:1012400000000140704770477047704770B5044612
:101250000368DE681D6915F0020F10D016F0020F4A
:101260000DD06FF002021A610123037703689B69B6
:1012700013F0030F5ED0FFF7E6FF0023237715F08E
:10128000040F12D016F0040F0FD023686FF0040281
:101290001A610223237723689B6913F4407F4FD0A0
:1012A0002046FFF7D0FF0023237715F0080F12D058
:1012B00016F0080F0FD023686FF008021A6104239C
:1012C00023772368DB6913F0030F40D02046FFF734
:1012D000BAFF0023237715F0100F12D016F0100F6D
:1012E0000FD023686FF010021A6108232377236858
:1012F000DB6913F4407F31D02046FFF7A4FF0023C1
:10130000237715F0010F02D016F0010F2DD115F043
:10131000800F02D016F0800F2FD115F0400F02D0B1
:1013200016F0400F31D115F0200F02D016F0200F2B
:1013300033D170BDFFF786FF2046FFF785FF9CE79E
:101340002046FFF77FFF2046FFF77EFFABE72046F2
:10135000FFF778FF2046FFF777FFBAE72046FFF751
:1013600071FF2046FFF770FFC9E723686FF00102A5
:101370001A612046FFF7B6F8C9E723686FF08002CC
:101380001A61204600F095F8C7E723686FF0400225
:101390001A612046FFF759FFC5E723686FF0200266
:1013A0001A61204600F084F8C3E700000368294A68
:1013B00090420ED0B0F1804F0BD0A2F57C4290420B
:1013C00007D002F58062904203D002F5806290421D
:1013D00003D123F070034A6813431E4A90421AD087
:1013E000B0F1804F17D0A2F57C42904213D002F5A5
:1013F000806290420FD002F5806290420BD002F5DD
:101400009A32904207D002F58062904203D002F5F2
:101410008062904203D123F44073CA68134323F0DF
:1014200080034A69134303608B68C3620B6883625D
:10143000084B98420AD001234361036913F0010F5E
:1014400003D0036923F00103036170470B69036351
:10145000F1E700BF0000014040B310B5044690F82A
:101460003D30F3B1022384F83D30214651F8040B9E
:10147000FFF79CFF012384F8463084F83E3084F85F
:101480003F3084F8403084F8413084F8423084F8AA
:10149000433084F8443084F8453084F83D300020EF
:1014A00010BD80F83C30FFF787F8DBE7012070477C
:1014B00070477047026802F10C0353E8003F23F4C1
:1014C00090730C3242E800310029F3D1026802F136
:1014D000140353E8003F23F00103143242E80031C3
:1014E0000029F3D1036B012B05D0202380F8423073
:1014F000002303637047026802F10C0353E8003FC6
:1015000023F010030C3242E800310029F3D1ECE75C
:1015100038B504460268136923F44053C1680B438D
:10152000136183680269134342691343C2691A4312
:101530000168CB6823F4164323F00C031343CB60FC
:101540000268536923F4407381690B435361036854
:10155000314A934206D002F58062934202D0FFF7EF
:1015600093FC01E0FFF7A0FCE369B3F5004F29D03D
:101570000021031849411B1841F10001C90041EA4B
:101580005371DB00181863684FEA83024FEA9373C4
:1015900041F10001FEF724FE204DA5FB0032510968
:1015A000642303FB11031B013233A5FB03235B09F7
:1015B00003F0F00202EB011203F00F032168134461
:1015C0008B6038BD0023021843EB0301121841F170
:1015D0000001C90041EA5271D200101841F1000126
:1015E000626892185B41FEF7FBFD0C4DA5FB0032D3
:1015F0005109642303FB1103DB003233A5FB0323F2
:101600005B095A0002F4F87202EB011203F00703BF
:10161000216813448B60D4E7001001401F85EB5113
:101620002DE9F04383B005460E4617469946DDF88E
:1016300028802C68246836EA04030CBF4FF0010CA4
:101640004FF0000CBC4528D1B8F1FF3FF1D0FFF7B7
:10165000B7FDA0EB0900404523D8B8F1000F22D018
:101660002B68DA6812F0040FE3D0802EE1D0402E10
:10167000DFD01A6812F0080FDBD0002401941A683A
:1016800001925B680193019B2846FFF713FF082333
:101690006B6485F84040012000E0002003B0BDE805
:1016A000F0830320FAE70320F8E760B310B504469F
:1016B00090F8413013B3242384F841302268D36872
:1016C00023F40053D3602046FFF722FF22681369FA
:1016D00023F4904313612268536923F02A03536172
:1016E0002268D36843F40053D36000206064202351
:1016F00084F8413084F84230606310BD80F8403097
:10170000FEF7C0FFD7E7012070472DE9F04182B016
:101710001E4690F84130DBB2202B56D104460D46D0
:101720009046002955D00AB901204FE000234364B8
:10173000212380F84130FFF743FD0746A4F82480B9
:10174000A4F82680A368B3F5805F02D04FF00008AC
:1017500014E023692BB34FF000080FE0202384F836
:101760004130032032E038F8023B2268C3F308031B
:101770005360E28C92B2013A92B2E284E38C9BB263
:1017800093B100963B46002280212046FFF748FF98
:101790000028E3D1002DE6D015F8012B23685A600C
:1017A000E7E7A8460025E9E700963B4600224021EE
:1017B0002046FFF735FF18B9202384F8413005E0B3
:1017C000202384F84130032000E0022002B0BDE86D
:1017D000F0810120FAE70000034AD2F8883043F490
:1017E0007003C2F88830704700ED00E000F1080394
:1017F00043604FF0FF328260C360036100230360E7
:10180000704700230361704743684B609A688A60A1
:10181000516099600861036801330360704730B418
:101820000D68B5F1FF3F11D000F108031C465B685D
:101830001A68AA42FAD963684B6099608C6061604B
:10184000086103680133036030BC70470469F2E744
:101850000369416882688A60416851605A688242BF
:1018600006D0002202611A68013A1A6018687047AF
:1018700082685A60F5E70000084B1B681B6823B9B3
:10188000074B4FF0FF321A607047044B1B68DB6850
:10189000DB685A68024B1A60704700BFB00700202F
:1018A000840800202DE9F04707469846089DDDF89A
:1018B00024900A9C266B02F18042013A06EB8206D4
:1018C00026F00706002968D08E464FF0000CBCF1C8
:1018D0000F0F0BD81EF80C2004EB0C0383F83420F8
:1018E0001EF80C3013B10CF1010CF0E7002384F862
:1018F0004330062D00D90625E56265644FF0000AE5
:10190000C4F848A0201DFFF77CFF04F11800FFF782
:1019100078FF2461C5F10705A5616462C4F878A465
:1019200084F87CA44FF48562514604F1500000F025
:10193000ADFE04F54F73636504F56973A36504F2A6
:101940000C43E36501220023C4E93E2343F20E3336
:10195000A4F800314AF6CD33A4F8023141F2342321
:10196000A4F804314EF26D63A4F806314DF6EC6331
:10197000A4F808310523A4F80A310B23A4F80C318C
:1019800042463946304600F0E1FC2060B9F1000FD4
:1019900001D0C9F80040BDE8F087002384F8343056
:1019A000A7E7000038B5002407E004EB84029300A9
:1019B0000E481844FFF71AFF0134062CF5D90C4DD8
:1019C0002846FFF713FF0B4C2046FFF70FFF0A488E
:1019D000FFF70CFF0948FFF709FF0948FFF706FF6B
:1019E000084B1D60084B1C6038BD00BFB8070020C5
:1019F000580800206C08002090080020BC08002037
:101A0000A8080020B0070020B407002010B5044645
:101A100000F0C8FC214A136801331360204B1B6897
:101A20005BB1204B1B686BB91D4B1B68DA6AE36A1C
:101A30009A4207D81A4B1C6004E0194B1C601368CB
:101A4000012B28D0184A136801331360E06A012380
:101A50008340164A11680B43136000EB8000211D80
:101A6000134B03EB8000FFF7CFFE00F0BDFC0D4BE6
:101A70001B687BB10A4B1B68DA6AE36A9A4209D297
:101A80004FF0E0234FF08052C3F8042DBFF34F8F87
:101A9000BFF36F8F10BDFFF785FFD3E74408002029
:101AA000AC070020A40800205008002054080020A3
:101AB000B807002010B50446503000F0FDFD94F842
:101AC0007D3463B1012B11D0022B0ED04FF05003A7
:101AD00083F31188BFF36F8FBFF34F8FFEE7206B47
:101AE00000F0B8FB204600F0B5FB10BD204600F02A
:101AF000B1FBFAE70F4B1B68D3B110B500F052FCF5
:101B00000D4BDB68DC68201DFFF7A2FE0B4A136853
:101B1000013B1360074A1368013B136000F064FC4B
:101B20002046FFF7C7FF034B1B68002BE6D110BD13
:101B3000704700BF48080020BC080020440800206F
:101B400008B5FFF7D7FF074B1B68012BF9D94FF0FA
:101B5000E0234FF08052C3F8042DBFF34F8FBFF343
:101B60006F8FEEE7B807002070B504460D461D4B99
:101B70001E681D4B18680430FFF76AFE50B91A4BF7
:101B80001B68DA6A012303FA02F218490B6823EA98
:101B900002030B60B4F1FF3F0DD03444124B1B68BD
:101BA0005C60A64210D9124B18680F4B19680431BB
:101BB000FFF735FE70BD002DEFD00B4B19680431D7
:101BC0000C48FFF721FEF5E70B4B1868064B196828
:101BD0000431FFF724FE094B1B68A342EAD9074BE7
:101BE0001C60E7E7D0080020AC0700205408002064
:101BF000B4070020A8080020B007002084080020B7
:101C000030B587B00B9C8CB10C9DC5B14FF490657D
:101C10000495049DB5F5906F1AD04FF0500383F3EF
:101C20001188BFF36F8FBFF34F8FFEE74FF0500364
:101C300083F31188BFF36F8FBFF34F8FFEE74FF031
:101C4000500383F31188BFF36F8FBFF34F8FFEE70D
:101C5000049D0C9D2C63022485F87D44002403948C
:101C6000029505AC01940A9C0094FFF71BFE0C98AA
:101C7000FFF7CCFE059807B030BD2DE9F04385B0E5
:101C80000746884614461E46900000F065FA08B3E1
:101C900081464FF4906000F05FFA0546B0B1C0F89D
:101CA0003090E5B1002385F87D34039302950D9BB8
:101CB00001930C9B00933346224641463846FFF77A
:101CC000F1FD2846FFF7A2FE012005E0484600F09E
:101CD000C1FAE6E74FF0FF3005B0BDE8F0834FF002
:101CE000FF30F9E710B588B000240594069407AAE0
:101CF00006A905A8FEF70EFD059B0293069B01931E
:101D000000942346079A10491048FFF779FF104BBB
:101D10001860B8B14FF0500383F31188BFF36F8F91
:101D2000BFF34F8F0B4B1B6850330B4A13600B4BA9
:101D30004FF0FF321A600A4B01221A60094B1C60F7
:101D400000F0CAFB08B010BD68280008411B00085D
:101D500080080020AC07002010000020840800202C
:101D6000A4080020D0080020024A13680133136041
:101D7000704700BF4C080020F8B53A4B1B68002B99
:101D800069D1394B1D6801351D60C5B9374B1B68DA
:101D90001B6843B14FF0500383F31188BFF36F8F7B
:101DA000BFF34F8FFEE7314A1168314B186810605E
:101DB0001960304A136801331360FFF75DFD2E4B45
:101DC0001B68AB423DD900272C4B1B68DB6A03EB39
:101DD00083039A002A4B9B58012B00D90127294BDA
:101DE0001B68002B3CD001273AE001271F4B1B68E2
:101DF0001B6843B31D4B1B68DB68DC6863689D424E
:101E000026D3261D3046FFF723FDA36A1BB104F13C
:101E10001800FFF71DFDE36A01229A401A4908687D
:101E200002430A6003EB83039A00314614481044CE
:101E3000FFF7EAFCE26A114B1B68DB6A9A42D4D2D4
:101E4000D4E70027D2E70C4B4FF0FF321A60BBE714
:101E5000094A1360B8E70D4A13680133136000277D
:101E60003846F8BD4C080020D0080020B0070020FC
:101E7000B40700208808002084080020AC07002058
:101E8000B8070020D4080020540800208C08002047
:101E900038B5354B1B6843B94FF0500383F31188B5
:101EA000BFF36F8FBFF34F8FFEE700F07BFA2E4B2F
:101EB0001A68013A1A601B68002B4FD12B4B1B6824
:101EC0000BB900244BE00024294B1B681BB3284BA3
:101ED000DB68DC6804F11800FFF7BAFC251D284612
:101EE000FFF7B6FCE06A01238340224A11680B43E6
:101EF000136000EB800029461F4B03EB8000FFF7C7
:101F000083FCE26A1D4B1B68DB6A9A42DCD31C4BE4
:101F100001221A60D8E70CB1FFF7AEFC194B1C6820
:101F200084B9174B1C68D4B14FF0E0234FF08052B6
:101F3000C3F8042DBFF34F8FBFF36F8F01240EE062
:101F4000013C07D0FFF718FF0028F9D00C4B012205
:101F50001A60F5E70B4B00221A60E2E7002400F05C
:101F600043FA204638BD00BF4C080020440800203A
:101F70009008002054080020B8070020AC0700207B
:101F8000D40800208C08002010B5A8B10446104BDE
:101F90001B6843B14FF0500383F31188BFF36F8F79
:101FA000BFF34F8FFEE7FFF7DFFE00212046FFF76C
:101FB000DBFDFFF76DFF48B94FF0E0234FF0805293
:101FC000C3F8042DBFF34F8FBFF36F8F10BD00BF59
:101FD0004C080020224B1B681BB1224B01221A60C7
:101FE0007047204B00221A601F4B1B68B3FA83F323
:101FF000DBB2C3F11F0303EB83018A001B498A583C
:1020000042B94FF0500383F31188BFF36F8FBFF3D2
:102010004F8FFEE7154903EB830082000A445068A6
:102020004068506003EB830C4FEA8C020832114485
:1020300088420DD003EB83039A000C4B13445B687A
:10204000DA680B4B1A601B6850330A4A13607047FA
:10205000406862469100054A0A445060EAE700BFC2
:102060004C080020D408002054080020B8070020A5
:10207000AC0700201000002008B5FFF733FE002059
:1020800008BD08B500B90120FFF77EFF002008BD9C
:10209000124A12F0070F1ED0D11D21F00701C1F521
:1020A000705313440A460E480260002141601344F5
:1020B000083B23F007030B48036059601960991A25
:1020C00051601360084B1960084B1960084B4FF0C2
:1020D00000421A6070474FF47053E4E7DC080020B8
:1020E000F0440020D8080020E4440020E044002010
:1020F000DC440020164B1A461B688342FBD3516810
:1021000002EB010C844509D0416800EB010C6345EA
:1021100009D00360904219D01060704740680144B4
:1021200051601046F0E710B40A4C2468A3420BD06B
:102130005B681944416013681B680360904200D0DB
:1021400010605DF8044B70470460F7E7704700BF0C
:10215000F0440020D808002070B50546FFF704FEC3
:10216000364B1B68A3B1364B1B681D424ED135B1AF
:10217000083515F0070F02D025F007050835002DAA
:1021800046D0304B1B68AB4251D32F4A146804E051
:10219000FFF77EFFE7E722461C466368AB4202D2A8
:1021A0002368002BF7D1254B1B68A34241D016684A
:1021B00008362368136063685B1B102B10D9601905
:1021C00010F0070F08D04FF0500383F31188BFF3CE
:1021D0006F8FBFF34F8FFEE743606560FFF78AFFA5
:1021E000626818490B689B1A0B60184909688B4292
:1021F00001D216490B60124B1B6813436360002326
:102200002360134A13680133136002E0002600E0E4
:102210000026FFF73DFE16F0070F0CD04FF05003DD
:1022200083F31188BFF36F8FBFF34F8FFEE7002654
:10223000EFE70026EDE7304670BD00BFD80800206C
:10224000DC440020E0440020F0440020E44400206E
:10225000E8440020002834D038B50446A0F1080531
:1022600050F8043C174A1268134208D14FF050034B
:1022700083F31188BFF36F8FBFF34F8FFEE750F8E2
:10228000081C41B14FF0500383F31188BFF36F8FE7
:10229000BFF34F8FFEE723EA020340F8043CFFF749
:1022A00063FD54F8041C084A13680B441360284665
:1022B000FFF720FF054A136801331360FFF7E8FDBD
:1022C00038BD7047DC440020E0440020EC4400208E
:1022D00082B0002301930D4B1B68B3F1FF3F08D080
:1022E0004FF0500383F31188BFF36F8FBFF34F8F0D
:1022F000FEE74FF0500383F31188BFF36F8FBFF3F6
:102300004F8F019B002BFCD002B070470C000020C7
:1023100008480068006880F308884FF0000080F3E8
:10232000148862B661B6BFF34F8FBFF36F8F00DFC3
:1023300000BF000008ED00E0DFF80C00016841F488
:10234000700101607047000088ED00E04FF080737D
:1023500040F8043C21F0010140F8081C054B40F80E
:102360000C3C40F8202C6FF0020340F8243C443829
:10237000704700BFD12200080000000000000000EC
:10238000074B19680868B0E8F04F80F30988BFF37D
:102390006F8F4FF0000080F311887047AFF300801B
:1023A000AC0700204FF0500383F31188BFF36F8F09
:1023B000BFF34F8F0B4A136801331360012B00D01A
:1023C00070474FF0E023D3F8043D13F0FF0FF7D030
:1023D0004FF0500383F31188BFF36F8FBFF34F8F1C
:1023E000FEE700BF0C000020094B1B6843B94FF00B
:1023F000500383F31188BFF36F8FBFF34F8FFEE756
:10240000013B034A13600BB983F31188704700BF87
:102410000C00002000000000000000000000000090
:10242000EFF30980BFF36F8F154B1A681EF0100F82
:1024300008BF20ED108A20E9F04F10602DE9090057
:102440004FF0500080F31188BFF34F8FBFF36F8FB1
:10245000FFF7C0FD4FF0000080F3118809BC196838
:102460000868B0E8F04F1EF0100F08BFB0EC108AFB
:1024700080F30988BFF36F8F704700BFAFF3008010
:10248000AC07002008B54FF0500383F31188BFF369
:102490006F8FBFF34F8FFFF76FFC28B14FF0E02332
:1024A0004FF08052C3F8042D002383F3118808BD38
:1024B0004FF0E022002313619361054B1B6805492F
:1024C000A1FB03139B09013B536107231361704771
:1024D00008000020D34D62104FF0E023D3F8002D08
:1024E0003D4B9A421CD04FF0E023D3F8002D3B4BDC
:1024F0009A421ED030B583B0394B1A78D2B20192CD
:10250000FF221A701B78DBB28DF803309DF8033080
:1025100003F05003334A1370334B07221A601BE059
:102520004FF0500383F31188BFF36F8FBFF34F8FCA
:10253000FEE74FF0500383F31188BFF36F8FBFF3B3
:102540004F8FFEE7284A1368013B13609DF8033064
:102550005B00DBB28DF803309DF8033013F0800F81
:10256000F0D1214B1B68032B08D04FF0500383F3AD
:102570001188BFF36F8FBFF34F8FFEE71B021A4A1C
:10258000136003F4E0631360019BDBB2144A137021
:102590004FF0E024D4F8203D43F47003C4F8203D0C
:1025A000D4F8203D43F07043C4F8203DFFF780FF8E
:1025B00000250E4B1D60FFF7BFFED4F8343F43F0FB
:1025C0004043C4F8343FFFF7A3FEFFF703FDFFF7D6
:1025D0007FFE284603B030BD71C20F4170C20F416B
:1025E00000E400E0F8440020FC4400200C0000203F
:1025F000DFF834D0FFF7F0F80C480D490D4A0023FE
:1026000002E0D458C4500433C4188C42F9D30A4AA7
:102610000A4C002301E013600432A242FBD300F015
:1026200011F8FDF7BFFF7047008001200000002077
:102630007400002080280008780000200845002051
:10264000FEE7000070B50D4D0D4C641BA410002674
:10265000A64209D10B4D0C4C00F0E4F8641BA41009
:102660000026A64205D170BD55F8043B98470136B7
:10267000EEE755F8043B98470136F2E77828000862
:1026800078280008782800087C28000802440346BF
:10269000934200D1704703F8011BF9E738B50C46A7
:1026A0000968054609B1FFF7F9FF21462846BDE84C
:1026B000384000F05DB800002C4B1B68834270B5B9
:1026C000044651D0436A43B1DB68002B4AD1636AA8
:1026D000196811B1204600F04BF8616911B120462C
:1026E00000F046F8616A11B1204600F041F8A16B94
:1026F00011B1204600F03CF8E16B11B1204600F02A
:1027000037F8216C11B1204600F032F8E16D11B1BB
:10271000204600F02DF8A16D11B1204600F028F8F8
:10272000616B11B1204600F023F8A369E3B1A36AFD
:1027300020469847A16CB9B12046BDE87040FFF72C
:10274000ADBF495941B90435636A802DD968F8D1C4
:10275000204600F00DF8BAE70E68204600F008F8B1
:102760003146EFE70025EFE770BD00BF1000002005
:1027700037B5002944D051F8043C0190002BA1F159
:102780000404B8BFE41800F03FF81E4A019813682B
:1027900033B96360146003B0BDE8304000F03AB86C
:1027A000A34208D9256861198B4201BF19685B688B
:1027B00049192160EDE71A465B680BB1A342FAD9CB
:1027C00011685518A5420BD1246821445418A3421E
:1027D0001160E0D11C685B68536021441160DAE746
:1027E00002D90C230360D6E7256861198B4204BF28
:1027F00019685B68636004BF491921605460CAE7C7
:1028000003B030BD00450020014800F009B800BF0A
:1028100004450020014800F004B800BF0445002032
:1028200070477047F8B500BFF8BC08BC9E467047BB
:0C283000F8B500BFF8BC08BC9E4670471D
:10283C0068656C6C6F00000044656661756C74545F
:10284C0061736B0000000000000000000102030433
:10285C0006070809000000000102030449444C4526
:04286C000000000068
:08287000A0D9FF7F0100000068
:04287800C50100088E
:04287C00A1010008AE
:1028800001000000100000000024F400AAAAAAAA77
:102890001400002000000000000000000000000004
:1028A0000000000000000000000000000000000028
:1028B0000000000000000000000000000000000018
:1028C0000000000000000000000000000000000008
:1028D00000000000000000000000000000000000F8
:1028E00000000000000000000000000000000000E8
:0428F00000000000E4
:04000005080025F1D9
:00000001FF
